:080BE200011D00011EFFC1020C
:10038700120BD0120BBE120C04E4FD7F8E120B97DA
:10039700E4FD7F80120B977D097F82120B977D0802
:1003A7007F84120B977D017F86120B977D017F88D3
:1003B700120B977D227F8C120B977F81120AF48F85
:1003C700087F83120AF48F097F85120AF48F0A8047
:1003D7006012000E30012CC2017F81120AF48F08CF
:1003E7007F83120AF48F097F85120AF48F0A7F87A9
:1003F700120AF48F0B7F89120AF48F0C7F8D120A71
:10040700F48F0DE51DB4080050C7900418F828288C
:10041700730204300204320204350204820204C863
:1004270002052A0205A20205F2800602052D300008
:1004370022E50AC4540FFFE50A540FFD7C00E509C5
:10044700C4540F751300F514E509540F751500F51D
:10045700168059E509C4540F751300F514E50954BE
:100467000F751500F51675170075180BE508C454B8
:100477000F751900F51AE50802058EE50AC4540F31
:10048700FFE50A540FFD7C00300015E509C4540F41
:10049700751300F514E509540F751500F516800C52
:1004A70075130075140A75150075160A751700750A
:1004B700180BE508C4540F751900F51AE50802056D
:1004C7005FE50AC4540FFFE50A540FFD7C00E509F8
:1004D700C4540F30002A751300F514E509540F753D
:1004E7001500F51675170075180BE508C4540F7538
:1004F7001900F51AE508540F751B00F51C0205ECE9
:10050700751300F514E509540F751500F5167517E1
:100517000075180B751900751A0A751B00751C0AEA
:100527000205EC30003CE50DC4540FFFE50D540FF8
:10053700FD7C00E50CC4540F751300F514E50C544D
:100547000F751500F51675170075180BE50BC454D4
:100557000F751900F51AE50B540F751B00F51C02F2
:1005670005ECE50CC4540F751300F514E50C540F96
:10057700751500F51675170075180BE50BC4540FA4
:10058700751900F51AE50B540F751B00F51C7B0B4D
:100597007A007D0A7C007F0A020632E50DC4540FFB
:1005A700FFE50D540FFD7C00300015E50CC4540F1A
:1005B700751300F514E50C540F751500F516800C2E
:1005C70075130075140A75150075160A75170075E9
:1005D700180BE50BC4540F751900F51AE50B540FEA
:1005E700751B00F51C7B0B7A008040300043E50D3E
:1005F700C4540FFFE50D540FFD7C00E50CC4540FE8
:10060700751300F514E50C540F751500F5167517DD
:100617000075180BE50BC4540F751900F51AE50B97
:10062700540F751B00F51C7B0B7A00120966020339
:10063700D8E50DC4540FFFE50D540FFD7C00E50C04
:10064700C4540F751300F514E50C540F751500F518
:100657001675170075180B751900751A0A751B00A2
:0D066700751C0A7B0B7A001209660203D88D
:100B6D00D2947F057E00120BF3C2947FF47E0112A6
:050B7D000BF3D29422ED
:100B5600C2037F457E00120BF3A29492037FF47EBC
:060B660001120BF3A203D3
:010B6C002266
:020B2A008F2E0C
:100B2C00E4F52FC2947F057E00120BF3E52E139291
:100B3C00947F3C7E00120BF3E52EC313F52ED2945A
:090B4C00052FE52FC3940840DADF
:010B5500227D
:100A7C00E4F530C2947F057E00120BF3D2947F050F
:100A8C007E00120BF3E531C313F53130940343317F
:100A9C00807F787E00120BF3D2947F057E00120BC0
:0C0AAC00F30530E530C3940840C9AF31B9
:010AB800221B
:06000300120B6D020B560A
:100AB9001200037FCC120B2A7F44120B2A7FEE7E91
:100AC90002120B821200037FCC120B2A7FBE120B7B
:100AD9002A120A7C8F1F120A7CEFAD1FFCEC120749
:0B0AE9007FE4FBFA7980783D02067480
:100BAB00E4FEC297EF1392A3EFC313FFD2970EBECF
:020BBB0008F040
:010BBD002215
:100B9700C29300C29700D29300120BABAF05120BA2
:040BA700ABC2932228
:100AF400E4FDC29300C29700D29300120BABE4FF53
:100B0400C297EDC313FD30A303430580D2970FBFF3
:100B140008EEC29300C293C29700D29700C2A3000A
:050B2400D2A300AF05A3
:010B290022A9
:080BEA00022A0000022C0000A9
:100BF300EF1FAC0670011E4C60060000000080F081
:010C030022CE
:100B8200EF1FAC0670011E4C600A7D0C7CA9DCFED6
:040B9200DDFC80EC1A
:010B9600223C
:0F0C0400758A18758CFCD2A9D2AFD28CC2B922D6
:03000B000208F1F7
:1008F100C0E0C0F0C083C082C0D075D000C000C0CD
:0D09010001C002C003C004C005C006C0074D
:10090E00052BE52BAE2A7002052A1464644E700680
:10091E00D201F52AF52B052DE52DAE2C7002052CF6
:10092E0014FFBE010BBFF408B200752C00752D002C
:0D093E00200205120A308F1E7F081209DA10
:10094B00D007D006D005D004D003D002D001D00000
:0B095B00D0D0D082D083D0F0D0E032AA
:100BBE0053A01FE4F580E5A0541F44A0F5A053A058
:020BCE001F22E4
:100A300043B00FE5B0540F640F602CE532C394054A
:100A400050040532801E20B005753307801620B192
:100A500005753306800E20B205753305800620B378
:100A6000037533047FFF22E532C394055006E4F595
:0B0A7000327FFF22D202E4F532AF33E8
:010A7B002258
:10000E00200203020386C202E51EB40707E51D04A3
:10001E005407F51DE51EB40404E4F51D22E51D2468
:10002E00FD70030200C71470030201541470030222
:10003E0001E114700302026E147003020302240520
:10004E006003020386E51E24FB602F146003020387
:10005E00867F85120AF48F0EE50EC4540375F00ADE
:10006E00A4FFE50E540F2FF50E2401FFE433FE7CA2
:10007E00007D181208028D0E80247F85120AF48FDF
:10008E000EE50EC4540375F00AA4FFE50E540F2FAF
:10009E00F50EC394014004150E8003750E17E50E80
:1000AE0075F00A84C454F0FFE50E75F00A84E5F08D
:1000BE002FF50EFD7F84020383E51E24FB6048149A
:1000CE0060030203867F83120AF48F0EE50EC4547A
:1000DE000F75F00AA4FFE50E540F2FF50E2401FF45
:1000EE00E433FE7C007D3C1208028D0EE50E75F0A9
:1000FE000A84C454F0FFE50E75F00A84E5F02FF57E
:10010E000EFD7F820203837F83120AF48F0EE50EAB
:10011E00C4540F75F00AA4FFE50E540F2FF50EC34D
:10012E0094014004150E8003750E3BE50E75F00A22
:10013E0084C454F0FFE50E75F00A84E5F02FF50E39
:10014E00FD7F82020383E51E24FB604814600302D8
:10015E0003867F81120AF48F0EE50EC4540F75F0DC
:10016E000AA4FFE50E540F2FF50E2401FFE433FE13
:10017E007C007D3C1208028D0EE50E75F00A84C4DB
:10018E0054F0FFE50E75F00A84E5F02FF50EFD7FB5
:10019E00800203837F81120AF48F0EE50EC4540F82
:1001AE0075F00AA4FFE50E540F2FF50EC39401400F
:1001BE0004150E8003750E3BE50E75F00A84C454CB
:1001CE00F0FFE50E75F00A84E5F02FF50EFD7F8049
:1001DE00020383E51E24FB60481460030203867F3E
:1001EE008D120AF48F0EE50EC4540F75F00AA4FF9B
:1001FE00E50E540F2FF50E2401FFE433FE7C007D37
:10020E00641208028D0EE50E75F00A84C454F0FFD8
:10021E00E50E75F00A84E5F02FF50EFD7F8C0203D6
:10022E00837F8D120AF48F0EE50EC4540F75F00AFB
:10023E00A4FFE50E540F2FF50EC394014004150EC6
:10024E008003750E63E50E75F00A84C454F0FFE565
:10025E000E75F00A84E5F02FF50EFD7F8C020383F8
:10026E00E51E24FB604F1460030203867F89120A89
:10027E00F48F0EE50EC4540F75F00AA4FFE50E546C
:10028E000F2FF50E2401FFE433FE7C007D0D1208C6
:10029E00028D0EE50E7003750E01E50E75F00A84E3
:1002AE00C454F0FFE50E75F00A84E5F02FF50EFD4F
:1002BE007F880203837F89120AF48F0EE50EC454E1
:1002CE000F75F00AA4FFE50E540F2FF50EC394021E
:1002DE004004150E8003750E0CE50E75F00A84C4ED
:1002EE0054F0FFE50E75F00A84E5F02FF50EFD7F54
:1002FE0088020383E51E24FB603F14707B7F871208
:10030E000AF48F0EE50EC4540F75F00AA4FFE50E25
:10031E00540F2FF50E04541FF50E7003750E01E5E4
:10032E000E75F00A84C454F0FFE50E75F00A84E5EC
:10033E00F02FF50EFD7F86803C7F87120AF48F0E1C
:10034E00E50EC4540F75F00AA4FFE50E540F2FF5F9
:10035E000EC394024004150E8003750E1FE50E7534
:10036E00F00A84C454F0FFE50E75F00A84E5F02F10
:08037E00F50EFD7F86120B97BE
:010386002254
:0C0C1300C0F9A4B0999282F88090FFBF55
:10096600EF900C1393F52274132DF582740C3CF55D
:1009760083E493F52374132BF582740C3AF583E420
:1009860093F52474132514F582740C3513F583E45A
:1009960093F52574132516F582740C3515F583E445
:1009A60093F52674132518F582740C3517F583E430
:1009B60093F5277413251AF582740C3519F583E41B
:1009C60093F5287413251CF582740C351BF583E406
:0409D60093F529224A
:1009DA0053A01FE4F580E5A0541F44C0F5A053A01E
:1009EA001FEFB5210C74222521F8E6547FF580808B
:1009FA000874222521F8E6F580E5A0541F44E0F5A5
:100A0A00A053A01FAF21A8077401088002C333D8DE
:100A1A00FCF580E521045407F521E5A0541F44C0E4
:050A2A00F5A053A01F20
:010A2F0022A4
:100BD00053A01F7580FFE5A0541F4480F5A053A0CB
:020BE0001F22D2
:10067400EC4D6011E8497017ED33EC3304600DE480
:10068400FCFFFEFD22E933E8330470F80207ED12A3
:1006940007B858046009E4CC2481500628500902A4
:1006A40007F72840030207F4C0E0EB4A7044B9801E
:1006B40006D0E0FB0207E3EF4E701CBD8008EBFFA1
:1006C400EAFEE9FD80EBE98DF0A4FEE5F002075DAA
:1006D400E9CDF9EAFEEBFFEF89F0A4FCE5F0CE8961
:1006E400F0A42EFFE435F0CD89F0A42DFEE435F01E
:1006F4008067EF4E7005BD80D780C3EF8BF0A4AC4C
:10070400F0EE8BF0A42CFCE435F0F8EF8AF0A42C86
:10071400E5F038FCE433CB8DF0A42CFCE5F03BF899
:10072400EE8AF0A42CFCE5F038F8E433CF89F0A489
:100734002CFCE5F038CF3400CE89F0A42FFFE5F08F
:100744003EFEE433C98DF0A42EFEE5F039CD8AF0E7
:10075400A42FFFE5F03EFEE43DFD33D0E0FB50075F
:100764000BBB000F0207F7EC2CFCEF33FFEE33FE5C
:06077400ED33FD0207CF8A
:10077A0075F020800E75F010800575F0087D007EFA
:10078A00007F003392D530D503120857EC3340105E
:10079A00EF33FFEE33FEED33FDEC33FCD5F0ED2203
:0E07AA00E5F0247EA2D513CC92E7CDCEFF223F
:1007B800E9D2E7C933E833F892D5EDD2E7CD33EC87
:0707C80033FC5002B2D52200
:1007CF00EC30E7100FBF000C0EBE00080DBD00048B
:1007DF000BEB6014A2D5EB13FCED92E7FD2274FF37
:1007EF00FCFDFEFF22E480F8A2D574FF13FC7D8090
:0307FF00E480EFA4
:030000000208658E
:0C086500787FE4F6D8FD7581330208AC02
:10080200BC000BBE0029EF8DF084FFADF022E4CCDA
:10081200F875F008EF2FFFEE33FEEC33FCEE9DECA3
:10082200984005FCEE9DFE0FD5F0E9E4CEFD22EDE9
:10083200F8F5F0EE8420D21CFEADF075F008EF2F33
:10084200FFED33FD4007985006D5F0F222C398FD24
:050852000FD5F0EA22C1
:0E085700C3E49FFFE49EFEE49DFDE49CFC22B2
:10087100020387E493A3F8E493A34003F68001F213
:1008810008DFF48029E493A3F85407240CC8C33388
:10089100C4540F4420C8834004F456800146F6DF57
:1008A100E4800B0102040810204080900BE2E47EFA
:1008B100019360BCA3FF543F30E509541FFEE4934C
:1008C100A360010ECF54C025E060A840B8E493A313
:1008D100FAE493A3F8E493A3C8C582C8CAC583CA3E
:1008E100F0A3C8C582C8CAC583CADFE9DEE780BEF6
:010BF2000002
:00000001FF
