:0C027500E5A0541F4480F5A07580FF2216
:0E025900A8077401088002C333D8FC4280223B
:0E026700A8077401088002C333D8FC6280220D
:1001B9001202757FE87E03120235750D00750E0374
:1001C900750F00751004751100751205751300750A
:1001D90014067515007516097B027A007D017C00ED
:1001E900E4FF12009A3000137F031202677F647ED6
:1001F90000120220C2007F0312025912020980BABA
:1002090020B0137F147E0012022030B0FD7F147ECF
:0702190000120220B2802256
:06000300C1000221000013
:10024800EF1FAC0670011E4C60060000000080F035
:010258002283
:10022000EF1FAC0670011E4C600A7D0C7CA9DCFE41
:04023000DDFC80EC85
:0102340022A7
:100235008E238F24758A18758CFCD2A9D2AFD28CE7
:03024500C2B92219
:03000B000201648B
:10016400C0E0C0F0C083C082C0D075D000C000C061
:0D01740001C002C003C004C005C006C007E2
:100181000522E52270020521B5240DE521B52308DC
:0D019100752100752200D2007F0812010EBA
:10019E00D007D006D005D004D003D002D001D000B5
:0B01AE00D0D0D082D083D0F0D0E0325F
:0C028100C0F9A4B0999282F88090FFC8E8
:10009A00EF90028193F51874812DF58274023CF574
:1000AA0083E493F51974812BF58274023AF583E49B
:1000BA0093F51A7481250EF5827402350DF583E4E1
:1000CA0093F51B74812510F5827402350FF583E4CC
:1000DA0093F51C74812512F58274023511F583E4B7
:1000EA0093F51D74812514F58274023513F583E4A2
:1000FA0093F51E74812516F58274023515F583E48D
:04010A0093F51F2228
:10010E0053A01FE4F580E5A0541F44C0F5A053A0F2
:10011E001FEFB5170C74182517F8E6547FF580807D
:10012E000874182517F8E6F580E5A0541F44E0F58D
:10013E00A053A01FAF17A8077401088002C333D8BD
:10014E00FCF580E517045407F517E5A0541F44C0CD
:05015E00F5A053A01FF5
:010163002279
:0300000002000EED
:0C000E00787FE4F6D8FD758124020055CF
:10001A000201B9E493A3F8E493A34003F68001F242
:10002A0008DFF48029E493A3F85407240CC8C333E7
:10003A00C4540F4420C8834004F456800146F6DFB6
:10004A00E4800B0102040810204080900003E47E43
:10005A00019360BCA3FF543F30E509541FFEE493AB
:10006A00A360010ECF54C025E060A840B8E493A372
:10007A00FAE493A3F8E493A3C8C582C8CAC583CA9D
:10008A00F0A3C8C582C8CAC583CADFE9DEE780BE55
:0100090000F6
:00000001FF
