:0C05F600E5A0541F4480F5A07580FF2292
:0E05DA00A8077401088002C333D8FC428022B7
:1005B70053A01F7580FFE5A0541F4480F5A053A0EA
:0205C7001F22F1
:0E05E800A8077401088002C333D8FC62802289
:100236001205B77FE87E031205A43000FDC2001246
:1002460004E58F0B8E0A8D098C08E4FFFE7DC87CC1
:1002560042AB0BAA0AA909A80812000E1201528E77
:100266000C8F0DC3E50D94E8E50C9403400D7C035B
:100276007DE81201D3AA06AB0780047A007B0AC385
:10028600E50D9464E50C9400401AAE0CAF0D7C03AA
:100296007DE81201D37E007F64CFCDCFCECCCE12C7
:1002A60001D380047E007F0A8E838F82AE0CAF0D51
:1002B6007C007D641201D37E007F0ACFCDCFCECCE9
:1002C600CE1201D38E198F1A8583178582188A1547
:1002D6008B1675130075140AAE0CAF0D7C007D0AE3
:1002E6001201D38C1B8D1C7B0A7A007D0A7C007F51
:0702F6000A12038902024015
:10054C0020B0137F147E0012057A30B0FD7F147E2C
:07055C000012057AB28022B3
:06000300C100022A00000A
:1005C900EF1FAC0670011E4C60060000000080F0B1
:0105D90022FF
:10057A00EF1FAC0670011E4C600A7D0C7CA9DCFEE4
:04058A00DDFC80EC28
:01058E00224A
:1005A4008E2C8F2D758A18758CFCD2A9D2AFD28C63
:0305B400C2B922A7
:03000B0002045399
:10045300C0E0C0F0C083C082C0D075D000C000C06F
:0D04630001C002C003C004C005C006C007F0
:10047000052BE52B7002052AB52D0DE52AB52C08B4
:0D048000752A00752B00D2007F051203FDC8
:10048D00D007D006D005D004D003D002D001D000C3
:0B049D00D0D0D082D083D0F0D0E0326D
:0C060200C0F9A4B0999282F88090FFC863
:10038900EF90060293F52274022DF58274063CF56E
:1003990083E493F52374022BF58274063AF583E41A
:1003A90093F52474022514F58274063513F583E454
:1003B90093F52574022516F58274063515F583E43F
:1003C90093F52674022518F58274063517F583E42A
:1003D90093F5277402251AF58274063519F583E415
:1003E90093F5287402251CF5827406351BF583E400
:0403F90093F529222D
:1003FD0053A01FE4F580E5A0541F44C0F5A053A001
:10040D001FEFB5210C74222521F8E6547FF580806D
:10041D000874222521F8E6F580E5A0541F44E0F587
:10042D00A053A01FAF21A8077401088002C333D8C1
:10043D00FCF580E521045407F521E5A0541F44C0C7
:05044D00F5A053A01F03
:010452002287
:10058F00D2947F057E001205C9C2947FF47E0112BA
:05059F0005C9D2942201
:10056300C2017F457E001205C9A29492017FF47EE9
:06057300011205C9A201FE
:01057900225F
:020520008F0F3B
:10052200E4F510C2947F057E001205C9E50F13920F
:10053200947F3C7E001205C9E50FC313F50FD294D8
:090542000510E510C3940840DA2D
:01054B00228D
:1004A800E4F50FC2947F057E001205C9D2947F053A
:1004B8007E001205C9E510C313F5103094034310EC
:1004C800807F787E001205C9D2947F057E001205D0
:0C04D800C9050FE50FC3940840C9AF1020
:0104E40022F5
:06060E0012058F020563D6
:1004E50012060E7FCC1205207F441205207FEE7E7A
:1004F5000212057A12060E7FCC1205207FBE120568
:10050500201204A88F0E1204A8EFAD0EFCEC120108
:0B05150019E4FBFA7980783D02000E2B
:10000E00EC4D6011E8497017ED33EC3304600DE4EC
:10001E00FCFFFEFD22E933E8330470F80201BE1244
:10002E00018958046009E4CC248150062850090245
:10003E0001C82840030201C5C0E0EB4A7044B980F4
:10004E0006D0E0FB0201B4EF4E701CBD8008EBFF42
:10005E00EAFEE9FD80EBE98DF0A4FEE5F00200F783
:10006E00E9CDF9EAFEEBFFEF89F0A4FCE5F0CE89CD
:10007E00F0A42EFFE435F0CD89F0A42DFEE435F08A
:10008E008067EF4E7005BD80D780C3EF8BF0A4ACB8
:10009E00F0EE8BF0A42CFCE435F0F8EF8AF0A42CF3
:1000AE00E5F038FCE433CB8DF0A42CFCE5F03BF806
:1000BE00EE8AF0A42CFCE5F038F8E433CF89F0A4F6
:1000CE002CFCE5F038CF3400CE89F0A42FFFE5F0FC
:1000DE003EFEE433C98DF0A42EFEE5F039CD8AF054
:1000EE00A42FFFE5F03EFEE43DFD33D0E0FB5007CC
:1000FE000BBB000F0201C8EC2CFCEF33FFEE33FEFE
:06010E00ED33FD0201A02B
:1001140075F020800E75F010800575F0087D007E66
:10012400007F003392D530D503120228EC334010FF
:10013400EF33FFEE33FEED33FDEC33FCD5F0ED226F
:0E014400E5F0247EA2D513CC92E7CDCEFF22AB
:10015200EDD2E7CD33EC3392D524814006E4FFFEA5
:10016200FDFC22FCE4CFCECDCC24E0501174FF8004
:10017200EDC3CC13CCCD13CDCE13CECF13CF0470A1
:07018200F030D5DE02022877
:10018900E9D2E7C933E833F892D5EDD2E7CD33ECBC
:0701990033FC5002B2D52235
:1001A000EC30E7100FBF000C0EBE00080DBD0004C0
:1001B0000BEB6014A2D5EB13FCED92E7FD2274FF6C
:1001C000FCFDFEFF22E480F8A2D574FF13FC7D80C5
:0301D000E480EFD9
:030000000202FDFC
:0C02FD00787FE4F6D8FD75812D020344E3
:1001D300BC000BBE0029EF8DF084FFADF022E4CC10
:1001E300F875F008EF2FFFEE33FEEC33FCEE9DECD9
:1001F300984005FCEE9DFE0FD5F0E9E4CEFD22ED1F
:10020300F8F5F0EE8420D21CFEADF075F008EF2F68
:10021300FFED33FD4007985006D5F0F222C398FD59
:050223000FD5F0EA22F6
:0E022800C3E49FFFE49EFEE49DFDE49CFC22E7
:10030900020236E493A3F8E493A34003F68001F2D2
:1003190008DFF48029E493A3F85407240CC8C333F5
:10032900C4540F4420C8834004F456800146F6DFC4
:10033900E4800B0102040810204080900003E47E51
:10034900019360BCA3FF543F30E509541FFEE493B9
:10035900A360010ECF54C025E060A840B8E493A380
:10036900FAE493A3F8E493A3C8C582C8CAC583CAAB
:10037900F0A3C8C582C8CAC583CADFE9DEE780BE63
:0100090000F6
:00000001FF
